{
  "_format": "hh-sol-artifact-1",
  "contractName": "Voting",
  "sourceName": "contracts/Voting.sol",
  "abi": [
    {
      "inputs": [
        {
          "internalType": "address",
          "name": "initialOwner",
          "type": "address"
        }
      ],
      "stateMutability": "nonpayable",
      "type": "constructor"
    },
    {
      "inputs": [
        {
          "internalType": "address",
          "name": "owner",
          "type": "address"
        }
      ],
      "name": "OwnableInvalidOwner",
      "type": "error"
    },
    {
      "inputs": [
        {
          "internalType": "address",
          "name": "account",
          "type": "address"
        }
      ],
      "name": "OwnableUnauthorizedAccount",
      "type": "error"
    },
    {
      "anonymous": false,
      "inputs": [
        {
          "indexed": true,
          "internalType": "uint256",
          "name": "candidateId",
          "type": "uint256"
        },
        {
          "indexed": false,
          "internalType": "string",
          "name": "name",
          "type": "string"
        }
      ],
      "name": "CandidateAdded",
      "type": "event"
    },
    {
      "anonymous": false,
      "inputs": [
        {
          "indexed": true,
          "internalType": "address",
          "name": "previousOwner",
          "type": "address"
        },
        {
          "indexed": true,
          "internalType": "address",
          "name": "newOwner",
          "type": "address"
        }
      ],
      "name": "OwnershipTransferred",
      "type": "event"
    },
    {
      "anonymous": false,
      "inputs": [
        {
          "indexed": true,
          "internalType": "address",
          "name": "voter",
          "type": "address"
        },
        {
          "indexed": true,
          "internalType": "uint256",
          "name": "candidateId",
          "type": "uint256"
        }
      ],
      "name": "VoteCast",
      "type": "event"
    },
    {
      "inputs": [
        {
          "internalType": "string",
          "name": "name",
          "type": "string"
        }
      ],
      "name": "addCandidate",
      "outputs": [
        {
          "internalType": "uint256",
          "name": "",
          "type": "uint256"
        }
      ],
      "stateMutability": "nonpayable",
      "type": "function"
    },
    {
      "inputs": [
        {
          "internalType": "uint256",
          "name": "candidateId",
          "type": "uint256"
        }
      ],
      "name": "getCandidate",
      "outputs": [
        {
          "internalType": "uint256",
          "name": "id",
          "type": "uint256"
        },
        {
          "internalType": "string",
          "name": "name",
          "type": "string"
        },
        {
          "internalType": "uint256",
          "name": "voteCount",
          "type": "uint256"
        }
      ],
      "stateMutability": "view",
      "type": "function"
    },
    {
      "inputs": [],
      "name": "getResults",
      "outputs": [
        {
          "internalType": "uint256[]",
          "name": "ids",
          "type": "uint256[]"
        },
        {
          "internalType": "string[]",
          "name": "names",
          "type": "string[]"
        },
        {
          "internalType": "uint256[]",
          "name": "voteCounts",
          "type": "uint256[]"
        }
      ],
      "stateMutability": "view",
      "type": "function"
    },
    {
      "inputs": [
        {
          "internalType": "address",
          "name": "",
          "type": "address"
        }
      ],
      "name": "hasVoted",
      "outputs": [
        {
          "internalType": "bool",
          "name": "",
          "type": "bool"
        }
      ],
      "stateMutability": "view",
      "type": "function"
    },
    {
      "inputs": [],
      "name": "owner",
      "outputs": [
        {
          "internalType": "address",
          "name": "",
          "type": "address"
        }
      ],
      "stateMutability": "view",
      "type": "function"
    },
    {
      "inputs": [],
      "name": "renounceOwnership",
      "outputs": [],
      "stateMutability": "nonpayable",
      "type": "function"
    },
    {
      "inputs": [],
      "name": "totalCandidates",
      "outputs": [
        {
          "internalType": "uint256",
          "name": "",
          "type": "uint256"
        }
      ],
      "stateMutability": "view",
      "type": "function"
    },
    {
      "inputs": [
        {
          "internalType": "address",
          "name": "newOwner",
          "type": "address"
        }
      ],
      "name": "transferOwnership",
      "outputs": [],
      "stateMutability": "nonpayable",
      "type": "function"
    },
    {
      "inputs": [
        {
          "internalType": "uint256",
          "name": "candidateId",
          "type": "uint256"
        }
      ],
      "name": "vote",
      "outputs": [],
      "stateMutability": "nonpayable",
      "type": "function"
    }
  ],
  "bytecode": "0x608060405234801561001057600080fd5b50604051610d3e380380610d3e83398101604081905261002f916100be565b806001600160a01b03811661005e57604051631e4fbdf760e01b81526000600482015260240160405180910390fd5b6100678161006e565b50506100ee565b600080546001600160a01b038381166001600160a01b0319831681178455604051919092169283917f8be0079c531659141344cd1fd0a4f28419497f9722a3daafe3b4186f6b6457e09190a35050565b6000602082840312156100d057600080fd5b81516001600160a01b03811681146100e757600080fd5b9392505050565b610c41806100fd6000396000f3fe608060405234801561001057600080fd5b50600436106100935760003560e01c8063462e91ec11610066578063462e91ec146101195780634717f97c1461012c578063715018a6146101435780638da5cb5b1461014b578063f2fde38b1461016657600080fd5b80630121b93f1461009857806309eef43e146100ad57806335b8e820146100e55780633866965c14610107575b600080fd5b6100ab6100a6366004610825565b610179565b005b6100d06100bb36600461083e565b60036020526000908152604090205460ff1681565b60405190151581526020015b60405180910390f35b6100f86100f3366004610825565b610295565b6040516100dc939291906108b4565b6001545b6040519081526020016100dc565b61010b6101273660046108dd565b6103cd565b61013461050a565b6040516100dc9392919061098b565b6100ab610756565b6000546040516001600160a01b0390911681526020016100dc565b6100ab61017436600461083e565b61076a565b60008111801561018b57506001548111155b6101d05760405162461bcd60e51b8152602060048201526011602482015270496e76616c69642063616e64696461746560781b60448201526064015b60405180910390fd5b3360009081526003602052604090205460ff16156102205760405162461bcd60e51b815260206004820152600d60248201526c105b1c9958591e481d9bdd1959609a1b60448201526064016101c7565b336000908152600360209081526040808320805460ff19166001908117909155848452600292839052908320909101805491929091610260908490610a26565b9091555050604051819033907fa36cc2bebb74db33e9f88110a07ef56e1b31b24b4c4f51b54b1664266e29f45b90600090a350565b60006060600080841180156102ac57506001548411155b6102ec5760405162461bcd60e51b8152602060048201526011602482015270496e76616c69642063616e64696461746560781b60448201526064016101c7565b6000600260008681526020019081526020016000206040518060600160405290816000820154815260200160018201805461032690610a39565b80601f016020809104026020016040519081016040528092919081815260200182805461035290610a39565b801561039f5780601f106103745761010080835404028352916020019161039f565b820191906000526020600020905b81548152906001019060200180831161038257829003601f168201915b5050509183525050600291909101546020918201528151908201516040909201519097919650945092505050565b60006103d76107a8565b816104245760405162461bcd60e51b815260206004820152601760248201527f43616e646964617465206e616d6520726571756972656400000000000000000060448201526064016101c7565b60018060008282546104369190610a26565b925050819055506040518060600160405280600154815260200184848080601f016020809104026020016040519081016040528093929190818152602001838380828437600092018290525093855250505060209182018190526001805482526002835260409091208351815591830151908201906104b59082610ada565b50604082015181600201559050506001547fe83b2a43e7e82d975c8a0a6d2f045153c869e111136a34d1889ab7b598e396a384846040516104f7929190610b9a565b60405180910390a2506001545b92915050565b606080606060015467ffffffffffffffff81111561052a5761052a610a73565b604051908082528060200260200182016040528015610553578160200160208202803683370190505b50925060015467ffffffffffffffff81111561057157610571610a73565b6040519080825280602002602001820160405280156105a457816020015b606081526020019060019003908161058f5790505b50915060015467ffffffffffffffff8111156105c2576105c2610a73565b6040519080825280602002602001820160405280156105eb578160200160208202803683370190505b50905060015b6001548111610750576000600260008381526020019081526020016000206040518060600160405290816000820154815260200160018201805461063490610a39565b80601f016020809104026020016040519081016040528092919081815260200182805461066090610a39565b80156106ad5780601f10610682576101008083540402835291602001916106ad565b820191906000526020600020905b81548152906001019060200180831161069057829003601f168201915b50505050508152602001600282015481525050905060006001836106d19190610bc9565b905081600001518682815181106106ea576106ea610bdc565b602002602001018181525050816020015185828151811061070d5761070d610bdc565b6020026020010181905250816040015184828151811061072f5761072f610bdc565b6020026020010181815250505050808061074890610bf2565b9150506105f1565b50909192565b61075e6107a8565b61076860006107d5565b565b6107726107a8565b6001600160a01b03811661079c57604051631e4fbdf760e01b8152600060048201526024016101c7565b6107a5816107d5565b50565b6000546001600160a01b031633146107685760405163118cdaa760e01b81523360048201526024016101c7565b600080546001600160a01b038381166001600160a01b0319831681178455604051919092169283917f8be0079c531659141344cd1fd0a4f28419497f9722a3daafe3b4186f6b6457e09190a35050565b60006020828403121561083757600080fd5b5035919050565b60006020828403121561085057600080fd5b81356001600160a01b038116811461086757600080fd5b9392505050565b6000815180845260005b8181101561089457602081850181015186830182015201610878565b506000602082860101526020601f19601f83011685010191505092915050565b8381526060602082015260006108cd606083018561086e565b9050826040830152949350505050565b600080602083850312156108f057600080fd5b823567ffffffffffffffff8082111561090857600080fd5b818501915085601f83011261091c57600080fd5b81358181111561092b57600080fd5b86602082850101111561093d57600080fd5b60209290920196919550909350505050565b60008151808452602080850194506020840160005b8381101561098057815187529582019590820190600101610964565b509495945050505050565b60608152600061099e606083018661094f565b6020838203818501528186518084528284019150828160051b85010183890160005b838110156109ee57601f198784030185526109dc83835161086e565b948601949250908501906001016109c0565b50508681036040880152610a02818961094f565b9a9950505050505050505050565b634e487b7160e01b600052601160045260246000fd5b8082018082111561050457610504610a10565b600181811c90821680610a4d57607f821691505b602082108103610a6d57634e487b7160e01b600052602260045260246000fd5b50919050565b634e487b7160e01b600052604160045260246000fd5b601f821115610ad5576000816000526020600020601f850160051c81016020861015610ab25750805b601f850160051c820191505b81811015610ad157828155600101610abe565b5050505b505050565b815167ffffffffffffffff811115610af457610af4610a73565b610b0881610b028454610a39565b84610a89565b602080601f831160018114610b3d5760008415610b255750858301515b600019600386901b1c1916600185901b178555610ad1565b600085815260208120601f198616915b82811015610b6c57888601518255948401946001909101908401610b4d565b5085821015610b8a5787850151600019600388901b60f8161c191681555b5050505050600190811b01905550565b60208152816020820152818360408301376000818301604090810191909152601f909201601f19160101919050565b8181038181111561050457610504610a10565b634e487b7160e01b600052603260045260246000fd5b600060018201610c0457610c04610a10565b506001019056fea2646970667358221220e11e189273296ed0972f62d368d1788a4c2924d774c16622db980d8a462f0b9164736f6c63430008180033",
  "linkReferences": {},
  "deployedLinkReferences": {}
}