{
  "contractName": "Voting",
  "abi": [
    {
      "anonymous": false,
      "inputs": [
        {
          "indexed": true,
          "internalType": "uint256",
          "name": "id",
          "type": "uint256"
        },
        {
          "indexed": false,
          "internalType": "string",
          "name": "name",
          "type": "string"
        },
        {
          "indexed": false,
          "internalType": "string",
          "name": "party",
          "type": "string"
        }
      ],
      "name": "CandidateAdded",
      "type": "event"
    },
    {
      "anonymous": false,
      "inputs": [
        {
          "indexed": false,
          "internalType": "uint256",
          "name": "start",
          "type": "uint256"
        },
        {
          "indexed": false,
          "internalType": "uint256",
          "name": "end",
          "type": "uint256"
        }
      ],
      "name": "DatesSet",
      "type": "event"
    },
    {
      "anonymous": false,
      "inputs": [
        {
          "indexed": true,
          "internalType": "address",
          "name": "voter",
          "type": "address"
        },
        {
          "indexed": true,
          "internalType": "uint256",
          "name": "candidateId",
          "type": "uint256"
        }
      ],
      "name": "Voted",
      "type": "event"
    },
    {
      "anonymous": false,
      "inputs": [
        {
          "indexed": true,
          "internalType": "address",
          "name": "operator",
          "type": "address"
        },
        {
          "indexed": true,
          "internalType": "uint256",
          "name": "candidateId",
          "type": "uint256"
        },
        {
          "indexed": true,
          "internalType": "bytes32",
          "name": "qrHash",
          "type": "bytes32"
        }
      ],
      "name": "VotedByQr",
      "type": "event"
    },
    {
      "constant": true,
      "inputs": [
        {
          "internalType": "uint256",
          "name": "",
          "type": "uint256"
        }
      ],
      "name": "candidates",
      "outputs": [
        {
          "internalType": "uint256",
          "name": "id",
          "type": "uint256"
        },
        {
          "internalType": "string",
          "name": "name",
          "type": "string"
        },
        {
          "internalType": "string",
          "name": "party",
          "type": "string"
        },
        {
          "internalType": "uint256",
          "name": "voteCount",
          "type": "uint256"
        }
      ],
      "payable": false,
      "stateMutability": "view",
      "type": "function"
    },
    {
      "constant": true,
      "inputs": [],
      "name": "countCandidates",
      "outputs": [
        {
          "internalType": "uint256",
          "name": "",
          "type": "uint256"
        }
      ],
      "payable": false,
      "stateMutability": "view",
      "type": "function"
    },
    {
      "constant": true,
      "inputs": [
        {
          "internalType": "bytes32",
          "name": "",
          "type": "bytes32"
        }
      ],
      "name": "votedQrTokens",
      "outputs": [
        {
          "internalType": "bool",
          "name": "",
          "type": "bool"
        }
      ],
      "payable": false,
      "stateMutability": "view",
      "type": "function"
    },
    {
      "constant": true,
      "inputs": [
        {
          "internalType": "address",
          "name": "",
          "type": "address"
        }
      ],
      "name": "voters",
      "outputs": [
        {
          "internalType": "bool",
          "name": "",
          "type": "bool"
        }
      ],
      "payable": false,
      "stateMutability": "view",
      "type": "function"
    },
    {
      "constant": true,
      "inputs": [],
      "name": "votingEnd",
      "outputs": [
        {
          "internalType": "uint256",
          "name": "",
          "type": "uint256"
        }
      ],
      "payable": false,
      "stateMutability": "view",
      "type": "function"
    },
    {
      "constant": true,
      "inputs": [],
      "name": "votingStart",
      "outputs": [
        {
          "internalType": "uint256",
          "name": "",
          "type": "uint256"
        }
      ],
      "payable": false,
      "stateMutability": "view",
      "type": "function"
    },
    {
      "constant": false,
      "inputs": [
        {
          "internalType": "string",
          "name": "name",
          "type": "string"
        },
        {
          "internalType": "string",
          "name": "party",
          "type": "string"
        }
      ],
      "name": "addCandidate",
      "outputs": [
        {
          "internalType": "uint256",
          "name": "",
          "type": "uint256"
        }
      ],
      "payable": false,
      "stateMutability": "nonpayable",
      "type": "function"
    },
    {
      "constant": false,
      "inputs": [
        {
          "internalType": "uint256",
          "name": "candidateID",
          "type": "uint256"
        }
      ],
      "name": "vote",
      "outputs": [],
      "payable": false,
      "stateMutability": "nonpayable",
      "type": "function"
    },
    {
      "constant": true,
      "inputs": [],
      "name": "checkVote",
      "outputs": [
        {
          "internalType": "bool",
          "name": "",
          "type": "bool"
        }
      ],
      "payable": false,
      "stateMutability": "view",
      "type": "function"
    },
    {
      "constant": false,
      "inputs": [
        {
          "internalType": "uint256",
          "name": "candidateID",
          "type": "uint256"
        },
        {
          "internalType": "string",
          "name": "qrToken",
          "type": "string"
        }
      ],
      "name": "voteByQr",
      "outputs": [],
      "payable": false,
      "stateMutability": "nonpayable",
      "type": "function"
    },
    {
      "constant": true,
      "inputs": [
        {
          "internalType": "string",
          "name": "qrToken",
          "type": "string"
        }
      ],
      "name": "checkVoteByQr",
      "outputs": [
        {
          "internalType": "bool",
          "name": "",
          "type": "bool"
        }
      ],
      "payable": false,
      "stateMutability": "view",
      "type": "function"
    },
    {
      "constant": true,
      "inputs": [],
      "name": "getCountCandidates",
      "outputs": [
        {
          "internalType": "uint256",
          "name": "",
          "type": "uint256"
        }
      ],
      "payable": false,
      "stateMutability": "view",
      "type": "function"
    },
    {
      "constant": true,
      "inputs": [
        {
          "internalType": "uint256",
          "name": "candidateID",
          "type": "uint256"
        }
      ],
      "name": "getCandidate",
      "outputs": [
        {
          "internalType": "uint256",
          "name": "",
          "type": "uint256"
        },
        {
          "internalType": "string",
          "name": "",
          "type": "string"
        },
        {
          "internalType": "string",
          "name": "",
          "type": "string"
        },
        {
          "internalType": "uint256",
          "name": "",
          "type": "uint256"
        }
      ],
      "payable": false,
      "stateMutability": "view",
      "type": "function"
    },
    {
      "constant": false,
      "inputs": [
        {
          "internalType": "uint256",
          "name": "_startDate",
          "type": "uint256"
        },
        {
          "internalType": "uint256",
          "name": "_endDate",
          "type": "uint256"
        }
      ],
      "name": "setDates",
      "outputs": [],
      "payable": false,
      "stateMutability": "nonpayable",
      "type": "function"
    },
    {
      "constant": true,
      "inputs": [],
      "name": "getDates",
      "outputs": [
        {
          "internalType": "uint256",
          "name": "",
          "type": "uint256"
        },
        {
          "internalType": "uint256",
          "name": "",
          "type": "uint256"
        }
      ],
      "payable": false,
      "stateMutability": "view",
      "type": "function"
    }
  ],
  "bytecode": "0x608060405234801561001057600080fd5b5061183f806100206000396000f3fe608060405234801561001057600080fd5b50600436106100f55760003560e01c80632e7d3be511610097578063a3ec138d11610066578063a3ec138d1461072d578063b0417e9814610789578063b86eda91146107ab578063dedf141e146107c9576100f5565b80632e7d3be5146104085780633477ee2e146104cd57806335b8e820146105ee57806385a386351461070f576100f5565b8063101158af116100d3578063101158af1461021957806316441813146102375780631aa83ec71461025c57806326541b56146102a2576100f5565b80630121b93f146100fa57806306d88e4d146101285780630a84a217146101fb575b600080fd5b6101266004803603602081101561011057600080fd5b8101908080359060200190929190505050610801565b005b6101e16004803603602081101561013e57600080fd5b810190808035906020019064010000000081111561015b57600080fd5b82018360208201111561016d57600080fd5b8035906020019184600183028401116401000000008311171561018f57600080fd5b91908080601f016020809104026020016040519081016040528093929190818152602001838380828437600081840152601f19601f820116905080830192505050505050509192919290505050610b7f565b604051808215151515815260200191505060405180910390f35b610203610c33565b6040518082815260200191505060405180910390f35b610221610c3d565b6040518082815260200191505060405180910390f35b61023f610c43565b604051808381526020018281526020019250505060405180910390f35b6102886004803603602081101561027257600080fd5b8101908080359060200190929190505050610c54565b604051808215151515815260200191505060405180910390f35b6103f2600480360360408110156102b857600080fd5b81019080803590602001906401000000008111156102d557600080fd5b8201836020820111156102e757600080fd5b8035906020019184600183028401116401000000008311171561030957600080fd5b91908080601f016020809104026020016040519081016040528093929190818152602001838380828437600081840152601f19601f8201169050808301925050505050505091929192908035906020019064010000000081111561036c57600080fd5b82018360208201111561037e57600080fd5b803590602001918460018302840111640100000000831117156103a057600080fd5b91908080601f016020809104026020016040519081016040528093929190818152602001838380828437600081840152601f19601f820116905080830192505050505050509192919290505050610c74565b6040518082815260200191505060405180910390f35b6104cb6004803603604081101561041e57600080fd5b81019080803590602001909291908035906020019064010000000081111561044557600080fd5b82018360208201111561045757600080fd5b8035906020019184600183028401116401000000008311171561047957600080fd5b91908080601f016020809104026020016040519081016040528093929190818152602001838380828437600081840152601f19601f820116905080830192505050505050509192919290505050610f15565b005b6104f9600480360360208110156104e357600080fd5b810190808035906020019092919050505061132c565b604051808581526020018060200180602001848152602001838103835286818151815260200191508051906020019080838360005b8381101561054957808201518184015260208101905061052e565b50505050905090810190601f1680156105765780820380516001836020036101000a031916815260200191505b50838103825285818151815260200191508051906020019080838360005b838110156105af578082015181840152602081019050610594565b50505050905090810190601f1680156105dc5780820380516001836020036101000a031916815260200191505b50965050505050505060405180910390f35b61061a6004803603602081101561060457600080fd5b810190808035906020019092919050505061148c565b604051808581526020018060200180602001848152602001838103835286818151815260200191508051906020019080838360005b8381101561066a57808201518184015260208101905061064f565b50505050905090810190601f1680156106975780820380516001836020036101000a031916815260200191505b50838103825285818151815260200191508051906020019080838360005b838110156106d05780820151818401526020810190506106b5565b50505050905090810190601f1680156106fd5780820380516001836020036101000a031916815260200191505b50965050505050505060405180910390f35b61071761161b565b6040518082815260200191505060405180910390f35b61076f6004803603602081101561074357600080fd5b81019080803573ffffffffffffffffffffffffffffffffffffffff169060200190929190505050611621565b604051808215151515815260200191505060405180910390f35b610791611641565b604051808215151515815260200191505060405180910390f35b6107b3611695565b6040518082815260200191505060405180910390f35b6107ff600480360360408110156107df57600080fd5b81019080803590602001909291908035906020019092919050505061169b565b005b6000600554141580156108175750600060045414155b610889576040517f08c379a00000000000000000000000000000000000000000000000000000000081526004018080602001828103825260148152602001807f566f74696e67206461746573206e6f742073657400000000000000000000000081525060200191505060405180910390fd5b600554421015610901576040517f08c379a00000000000000000000000000000000000000000000000000000000081526004018080602001828103825260168152602001807f566f74696e6720686173206e6f7420737461727465640000000000000000000081525060200191505060405180910390fd5b6004544210610978576040517f08c379a00000000000000000000000000000000000000000000000000000000081526004018080602001828103825260108152602001807f566f74696e672068617320656e6465640000000000000000000000000000000081525060200191505060405180910390fd5b60008111801561098a57506003548111155b6109fc576040517f08c379a00000000000000000000000000000000000000000000000000000000081526004018080602001828103825260118152602001807f496e76616c69642063616e64696461746500000000000000000000000000000081525060200191505060405180910390fd5b600160003373ffffffffffffffffffffffffffffffffffffffff1673ffffffffffffffffffffffffffffffffffffffff16815260200190815260200160002060009054906101000a900460ff1615610abc576040517f08c379a000000000000000000000000000000000000000000000000000000000815260040180806020018281038252600d8152602001807f416c726561647920766f7465640000000000000000000000000000000000000081525060200191505060405180910390fd5b60018060003373ffffffffffffffffffffffffffffffffffffffff1673ffffffffffffffffffffffffffffffffffffffff16815260200190815260200160002060006101000a81548160ff02191690831515021790555060008082815260200190815260200160002060030160008154809291906001019190505550803373ffffffffffffffffffffffffffffffffffffffff167f4d99b957a2bc29a30ebd96a7be8e68fe50a3c701db28a91436490b7d53870ca460405160405180910390a350565b60008082511415610b935760009050610c2e565b6000826040516020018082805190602001908083835b60208310610bcc5780518252602082019150602081019050602083039250610ba9565b6001836020036101000a0380198251168184511680821785525050505050509050019150506040516020818303038152906040528051906020012090506002600082815260200190815260200160002060009054906101000a900460ff169150505b919050565b6000600354905090565b60055481565b600080600554600454915091509091565b60026020528060005260406000206000915054906101000a900460ff1681565b600080835111610cec576040517f08c379a000000000000000000000000000000000000000000000000000000000815260040180806020018281038252600d8152602001807f4e616d652072657175697265640000000000000000000000000000000000000081525060200191505060405180910390fd5b6000825111610d63576040517f08c379a000000000000000000000000000000000000000000000000000000000815260040180806020018281038252600e8152602001807f506172747920726571756972656400000000000000000000000000000000000081525060200191505060405180910390fd5b6003600081548092919060010191905055506040518060800160405280600354815260200184815260200183815260200160008152506000806003548152602001908152602001600020600082015181600001556020820151816001019080519060200190610dd3929190611765565b506040820151816002019080519060200190610df0929190611765565b50606082015181600301559050506003547fe64f834082661dd9ed89427b87edb6270fd6dad17198b0938f0edd058914c87f8484604051808060200180602001838103835285818151815260200191508051906020019080838360005b83811015610e68578082015181840152602081019050610e4d565b50505050905090810190601f168015610e955780820380516001836020036101000a031916815260200191505b50838103825284818151815260200191508051906020019080838360005b83811015610ece578082015181840152602081019050610eb3565b50505050905090810190601f168015610efb5780820380516001836020036101000a031916815260200191505b5094505050505060405180910390a2600354905092915050565b600060055414158015610f2b5750600060045414155b610f9d576040517f08c379a00000000000000000000000000000000000000000000000000000000081526004018080602001828103825260148152602001807f566f74696e67206461746573206e6f742073657400000000000000000000000081525060200191505060405180910390fd5b600554421015611015576040517f08c379a00000000000000000000000000000000000000000000000000000000081526004018080602001828103825260168152602001807f566f74696e6720686173206e6f7420737461727465640000000000000000000081525060200191505060405180910390fd5b600454421061108c576040517f08c379a00000000000000000000000000000000000000000000000000000000081526004018080602001828103825260108152602001807f566f74696e672068617320656e6465640000000000000000000000000000000081525060200191505060405180910390fd5b60008211801561109e57506003548211155b611110576040517f08c379a00000000000000000000000000000000000000000000000000000000081526004018080602001828103825260118152602001807f496e76616c69642063616e64696461746500000000000000000000000000000081525060200191505060405180910390fd5b6000815111611187576040517f08c379a00000000000000000000000000000000000000000000000000000000081526004018080602001828103825260118152602001807f515220746f6b656e20726571756972656400000000000000000000000000000081525060200191505060405180910390fd5b6000816040516020018082805190602001908083835b602083106111c0578051825260208201915060208101905060208303925061119d565b6001836020036101000a0380198251168184511680821785525050505050509050019150506040516020818303038152906040528051906020012090506002600082815260200190815260200160002060009054906101000a900460ff1615611291576040517f08c379a00000000000000000000000000000000000000000000000000000000081526004018080602001828103825260108152602001807f515220616c726561647920766f7465640000000000000000000000000000000081525060200191505060405180910390fd5b60016002600083815260200190815260200160002060006101000a81548160ff0219169083151502179055506000808481526020019081526020016000206003016000815480929190600101919050555080833373ffffffffffffffffffffffffffffffffffffffff167f110cf3148fcbcbc9a8c62ec72b377bf3afb2d9572f141b80e773ef54c6bf258460405160405180910390a4505050565b6000602052806000526040600020600091509050806000015490806001018054600181600116156101000203166002900480601f0160208091040260200160405190810160405280929190818152602001828054600181600116156101000203166002900480156113de5780601f106113b3576101008083540402835291602001916113de565b820191906000526020600020905b8154815290600101906020018083116113c157829003601f168201915b505050505090806002018054600181600116156101000203166002900480601f01602080910402602001604051908101604052809291908181526020018280546001816001161561010002031660029004801561147c5780601f106114515761010080835404028352916020019161147c565b820191906000526020600020905b81548152906001019060200180831161145f57829003601f168201915b5050505050908060030154905084565b600060608060008460008087815260200190815260200160002060010160008088815260200190815260200160002060020160008089815260200190815260200160002060030154828054600181600116156101000203166002900480601f0160208091040260200160405190810160405280929190818152602001828054600181600116156101000203166002900480156115695780601f1061153e57610100808354040283529160200191611569565b820191906000526020600020905b81548152906001019060200180831161154c57829003601f168201915b50505050509250818054600181600116156101000203166002900480601f0160208091040260200160405190810160405280929190818152602001828054600181600116156101000203166002900480156116055780601f106115da57610100808354040283529160200191611605565b820191906000526020600020905b8154815290600101906020018083116115e857829003601f168201915b5050505050915093509350935093509193509193565b60045481565b60016020528060005260406000206000915054906101000a900460ff1681565b6000600160003373ffffffffffffffffffffffffffffffffffffffff1673ffffffffffffffffffffffffffffffffffffffff16815260200190815260200160002060009054906101000a900460ff16905090565b60035481565b818111611710576040517f08c379a00000000000000000000000000000000000000000000000000000000081526004018080602001828103825260178152602001807f456e64206d75737420626520616674657220737461727400000000000000000081525060200191505060405180910390fd5b81600581905550806004819055507f99b4c7979eb9800a4abbef0d42cdf097b6b031b669e7f83d4d1d0cb90f75e58d600554600454604051808381526020018281526020019250505060405180910390a15050565b828054600181600116156101000203166002900490600052602060002090601f016020900481019282601f106117a657805160ff19168380011785556117d4565b828001600101855582156117d4579182015b828111156117d35782518255916020019190600101906117b8565b5b5090506117e191906117e5565b5090565b61180791905b808211156118035760008160009055506001016117eb565b5090565b9056fea265627a7a723158201ec1d9e5fa3b8cee9d50a4da9287dee03b894f5b273be3e75721ab89a4a13b8d64736f6c63430005100032",
  "source": "pragma solidity ^0.5.15;\n\ncontract Voting {\n    struct Candidate {\n        uint id;\n        string name;\n        string party; \n        uint voteCount;\n    }\n\n    mapping (uint => Candidate) public candidates;\n    mapping (address => bool) public voters;\n    mapping (bytes32 => bool) public votedQrTokens;\n\n    uint public countCandidates;\n    uint256 public votingEnd;\n    uint256 public votingStart;\n\n    // Helpful events for debugging/UX\n    event CandidateAdded(uint indexed id, string name, string party);\n    event Voted(address indexed voter, uint indexed candidateId);\n    event VotedByQr(address indexed operator, uint indexed candidateId, bytes32 indexed qrHash);\n    event DatesSet(uint256 start, uint256 end);\n\n    function addCandidate(string memory name, string memory party) public returns (uint) {\n        require(bytes(name).length > 0, \"Name required\");\n        require(bytes(party).length > 0, \"Party required\");\n\n        countCandidates++;\n        candidates[countCandidates] = Candidate(countCandidates, name, party, 0);\n\n        emit CandidateAdded(countCandidates, name, party);\n        return countCandidates;\n    }\n   \n    function vote(uint candidateID) public {\n        // must be within window\n        require(votingStart != 0 && votingEnd != 0, \"Voting dates not set\");\n        require(block.timestamp >= votingStart, \"Voting has not started\");\n        require(block.timestamp < votingEnd, \"Voting has ended\");\n\n        // candidate must exist (IDs are 1..countCandidates)\n        require(candidateID > 0 && candidateID <= countCandidates, \"Invalid candidate\");\n\n        // must not have voted already\n        require(!voters[msg.sender], \"Already voted\");\n              \n        voters[msg.sender] = true;\n        candidates[candidateID].voteCount++;\n\n        emit Voted(msg.sender, candidateID);\n    }\n    \n    function checkVote() public view returns (bool) {\n        return voters[msg.sender];\n    }\n\n    function voteByQr(uint candidateID, string memory qrToken) public {\n        // must be within window\n        require(votingStart != 0 && votingEnd != 0, \"Voting dates not set\");\n        require(block.timestamp >= votingStart, \"Voting has not started\");\n        require(block.timestamp < votingEnd, \"Voting has ended\");\n\n        // candidate must exist\n        require(candidateID > 0 && candidateID <= countCandidates, \"Invalid candidate\");\n\n        require(bytes(qrToken).length > 0, \"QR token required\");\n        bytes32 qrHash = keccak256(abi.encodePacked(qrToken));\n        require(!votedQrTokens[qrHash], \"QR already voted\");\n\n        votedQrTokens[qrHash] = true;\n        candidates[candidateID].voteCount++;\n\n        emit VotedByQr(msg.sender, candidateID, qrHash);\n    }\n\n    function checkVoteByQr(string memory qrToken) public view returns (bool) {\n        if (bytes(qrToken).length == 0) {\n            return false;\n        }\n        bytes32 qrHash = keccak256(abi.encodePacked(qrToken));\n        return votedQrTokens[qrHash];\n    }\n       \n    function getCountCandidates() public view returns (uint) {\n        return countCandidates;\n    }\n\n    function getCandidate(uint candidateID)\n        public\n        view\n        returns (uint, string memory, string memory, uint)\n    {\n        return (\n            candidateID,\n            candidates[candidateID].name,\n            candidates[candidateID].party,\n            candidates[candidateID].voteCount\n        );\n    }\n\n    \n\n    function setDates(uint256 _startDate, uint256 _endDate) public {\n        require(_endDate > _startDate, \"End must be after start\");\n        // Allow updating dates for new elections without requiring contract redeploy.\n        votingStart = _startDate;\n        votingEnd = _endDate;\n\n        emit DatesSet(votingStart, votingEnd);\n    }\n\n    function getDates() public view returns (uint256, uint256) {\n            return (votingStart, votingEnd);\n        }\n\n    \n}\n",
  "sourcePath": "C:\\Users\\DEVAN\\Desktop\\Decentralized-Voting-System-main\\contracts\\Voting.sol",
  "compiler": {
    "name": "solc",
    "version": "0.5.16+commit.9c3226ce.Emscripten.clang"
  },
  "schemaVersion": "3.4.16",
  "updatedAt": "2026-02-14T10:46:33.005Z",
  "networkType": "ethereum",
  "devdoc": {
    "methods": {}
  },
  "userdoc": {
    "methods": {}
  }
}